{
    "contractName": "KycContract",
    "abi": [
        {
            "anonymous": false,
            "inputs": [
                {
                    "indexed": true,
                    "internalType": "address",
                    "name": "previousOwner",
                    "type": "address"
                },
                {
                    "indexed": true,
                    "internalType": "address",
                    "name": "newOwner",
                    "type": "address"
                }
            ],
            "name": "OwnershipTransferred",
            "type": "event"
        },
        {
            "inputs": [
                {
                    "internalType": "address",
                    "name": "_addr",
                    "type": "address"
                }
            ],
            "name": "kycCompleted",
            "outputs": [
                {
                    "internalType": "bool",
                    "name": "",
                    "type": "bool"
                }
            ],
            "stateMutability": "view",
            "type": "function"
        },
        {
            "inputs": [],
            "name": "owner",
            "outputs": [
                {
                    "internalType": "address",
                    "name": "",
                    "type": "address"
                }
            ],
            "stateMutability": "view",
            "type": "function"
        },
        {
            "inputs": [],
            "name": "renounceOwnership",
            "outputs": [],
            "stateMutability": "nonpayable",
            "type": "function"
        },
        {
            "inputs": [
                {
                    "internalType": "address",
                    "name": "_addr",
                    "type": "address"
                }
            ],
            "name": "setKycCompleted",
            "outputs": [],
            "stateMutability": "nonpayable",
            "type": "function"
        },
        {
            "inputs": [
                {
                    "internalType": "address",
                    "name": "_addr",
                    "type": "address"
                }
            ],
            "name": "setKycRevoked",
            "outputs": [],
            "stateMutability": "nonpayable",
            "type": "function"
        },
        {
            "inputs": [
                {
                    "internalType": "address",
                    "name": "newOwner",
                    "type": "address"
                }
            ],
            "name": "transferOwnership",
            "outputs": [],
            "stateMutability": "nonpayable",
            "type": "function"
        }
    ],
    "bytecode": "608060405234801561001057600080fd5b5061002161001c610026565b61002a565b61007a565b3390565b600080546001600160a01b038381166001600160a01b0319831681178455604051919092169283917f8be0079c531659141344cd1fd0a4f28419497f9722a3daafe3b4186f6b6457e09190a35050565b6103f2806100896000396000f3fe608060405234801561001057600080fd5b50600436106100625760003560e01c806370c9aedd14610067578063715018a61461007c5780638da5cb5b14610084578063dc3958cc146100a2578063df235fe4146100b5578063f2fde38b146100d5575b600080fd5b61007a6100753660046102f4565b6100e8565b005b61007a610157565b61008c6101a2565b6040516100999190610322565b60405180910390f35b61007a6100b03660046102f4565b6101b1565b6100c86100c33660046102f4565b610211565b6040516100999190610336565b61007a6100e33660046102f4565b61022f565b6100f06102a0565b6001600160a01b03166101016101a2565b6001600160a01b0316146101305760405162461bcd60e51b815260040161012790610387565b60405180910390fd5b6001600160a01b03166000908152600160208190526040909120805460ff19169091179055565b61015f6102a0565b6001600160a01b03166101706101a2565b6001600160a01b0316146101965760405162461bcd60e51b815260040161012790610387565b6101a060006102a4565b565b6000546001600160a01b031690565b6101b96102a0565b6001600160a01b03166101ca6101a2565b6001600160a01b0316146101f05760405162461bcd60e51b815260040161012790610387565b6001600160a01b03166000908152600160205260409020805460ff19169055565b6001600160a01b031660009081526001602052604090205460ff1690565b6102376102a0565b6001600160a01b03166102486101a2565b6001600160a01b03161461026e5760405162461bcd60e51b815260040161012790610387565b6001600160a01b0381166102945760405162461bcd60e51b815260040161012790610341565b61029d816102a4565b50565b3390565b600080546001600160a01b038381166001600160a01b0319831681178455604051919092169283917f8be0079c531659141344cd1fd0a4f28419497f9722a3daafe3b4186f6b6457e09190a35050565b600060208284031215610305578081fd5b81356001600160a01b038116811461031b578182fd5b9392505050565b6001600160a01b0391909116815260200190565b901515815260200190565b60208082526026908201527f4f776e61626c653a206e6577206f776e657220697320746865207a65726f206160408201526564647265737360d01b606082015260800190565b6020808252818101527f4f776e61626c653a2063616c6c6572206973206e6f7420746865206f776e657260408201526060019056fea26469706673582212204b0bf363835a5cd5eb4987ed8e215b0667552f76a519152dad0c20fb40823a9764736f6c63430008000033",
    "sourcePath": "d:/Project/Tokenization/contracts/KycContract.sol",
    "compiler": {
        "name": "solc",
        "version": "0.8.0+commit.c7dfd78e"
    },
    "functionHashes": {
        "kycCompleted(address)": "df235fe4",
        "owner()": "8da5cb5b",
        "renounceOwnership()": "715018a6",
        "setKycCompleted(address)": "70c9aedd",
        "setKycRevoked(address)": "dc3958cc",
        "transferOwnership(address)": "f2fde38b"
    },
    "gasEstimates": {
        "creation": {
            "codeDepositCost": "202000",
            "executionCost": "22713",
            "totalCost": "224713"
        },
        "external": {
            "kycCompleted(address)": "1313",
            "owner()": "1092",
            "renounceOwnership()": "23504",
            "setKycCompleted(address)": "22095",
            "setKycRevoked(address)": "22143",
            "transferOwnership(address)": "23752"
        }
    }
}